:020000040800F2
:1000000000500020650200086B0200086F02000823
:10001000E1020008E50200082D03000800000000CE
:100020000000000000000000000000007503000850
:1000300079030008000000007D0300084D07000858
:100040000506000805060008050600080506000864
:100050000506000805060008050600080506000854
:100060000506000805060008050600080506000844
:100070000506000805060008050600080506000834
:100080000506000805060008050600080506000824
:100090000506000805060008050600080506000814
:1000A0000506000805060008050600080506000804
:1000B00005060008050600080506000805060008F4
:1000C00005060008050600080506000805060008E4
:1000D00005060008050600080506000805060008D4
:1000E00005060008050600080506000800000000D7
:1000F0000000000000000000000000000000000000
:1001000000000000000000005FF808F1005000202F
:10011000650200086B0200086F020008E102000897
:10012000E50200082D0300080000000000000000A8
:1001300000000000000000007503000879030008BB
:10014000000000007D0300084D070008910300082F
:1001500000B583B000F0BCF9304B314A1360314A2E
:100160001360314B314A03E052F8041B43F8041B7F
:100170002F498B42F8D32A4B1A682E4B9A4200D053
:10018000FEE7284B1A682C4B9A42F9D1234B2B4A95
:1001900013602B4A13602B4B02E0002243F8042B20
:1001A000294A9342F9D3254B1B6813B9244B1B688A
:1001B00003B1FEE700F098F9694601A800F022F9C2
:1001C000224C234BE41AA410002504E0204B53F8E2
:1001D000253098470135AC42F8DC1E4C1E4BE41A22
:1001E000A410002504E01C4B53F825309847013536
:1001F000AC42F8DC0099019800F0ACFA0546174CC7
:10020000174BE41AA41004E0013C154B53F82430BA
:100210009847002CF8DC284600F0D0F8BABADECABD
:1002200000000020740000200000002018120008C8
:1002300078000020785634123254769878000020E6
:10024000200100207800002024010020BC030008C9
:10025000BC030008BC030008BC030008BC03000882
:10026000BC03000808B5FFF773FF00BEFEE71EF0F1
:10027000040F0CBFEFF30880EFF309807146414A89
:1002800010472DE9F04182B004460D46124B5F6BDA
:10029000D3F838809E6A1B6B13F0020F03D00E4B0D
:1002A000DB6A002B0BDB0D4800F0B4F800954346E9
:1002B0003A463146204600F01BF900BEFEE74BF6F9
:1002C000AB6100F08FF90028EDD0034B4FF00042F6
:1002D000DA6202B0BDE8F08100ED00E070110008C4
:1002E00000BEFEE71EF0040F0CBFEFF30880EFF333
:1002F00009807146244A10472DE9F04182B0044636
:100300000D46084B5F6BD3F838809E6A064800F0B4
:1003100081F8009543463A463146204600F0E8F819
:1003200000BEFEE700ED00E0801100081EF0040FA3
:100330000CBFEFF30880EFF309807146134A1047B2
:100340002DE9F04182B004460D46084B5F6BD3F8AF
:1003500038809E6A064800F05DF8009543463A46AC
:100360003146204600F0C4F800BEFEE700ED00E094
:100370008C11000800BEFEE700BEFEE700BEFEE7EF
:100380007047000083020008F902000841030008DA
:02039000FEE786
:10039400181200080000002078000020181200083D
:1003A400000000100000001078000020240100204C
:0803B400000000100000001021
:1003BC00FEE7000008B503460C4A12685AB10B4A16
:1003CC001068033323F003030344094A934206D80D
:1003DC00064A136008BD054A06491160EFE700F0B4
:1003EC00D1F90C2303604FF0FF30F3E77C000020C1
:1003FC00004C00202401002001230360014B0B6002
:10040C00704700BF040000200FB400B583B004ABEC
:10041C0053F8042B01938021074800F0FBF90028C6
:10042C0004DC03B05DF804EB04B0704701460248ED
:10043C0000F044F8F5E700BF8400002010B5044636
:10044C0000F0B4F90146204600F038F801210248CA
:10045C0000F034F810BD00BFEC1000082DE9F0439B
:10046C0085B004460F46435633BB04252846214627
:10047C00ABBE0446384605B0BDE8F08314F9010B59
:10048C0004AA1A4402F8100C0133AB42F6D304AAA6
:10049C001344002203F8102C4FF00408E9464046A0
:1004AC004946ABBE8046761B002EE3D03546102E57
:1004BC0028BF10250023E8E70E46F5E708B5FFF73F
:1004CC00CDFF08BD08B500F099F8024A024B9A60BE
:1004DC0008BD00BF0000000800ED00E008B500F00A
:1004EC00B3F808BDF8B504460D4617461E46274816
:1004FC00FFF78AFF21682648FFF786FF61682548C9
:10050C00FFF782FFA1682448FFF77EFFE1682348CC
:10051C00FFF77AFF21692248FFF776FF61692148CE
:10052C00FFF772FFA1692048FFF76EFFE1691F48D2
:10053C00FFF76AFF1E48FFF767FF29461D48FFF7C4
:10054C0063FF1D4CE16A1D48FFF75EFF216B1C48E1
:10055C00FFF75AFFE16B1B48FFF756FF15F0800FB2
:10056C000AD115F4004F0CD11748FFF74DFF06992F
:10057C001648FFF749FFF8BD39461548FFF744FF09
:10058C00EFE731461348FFF73FFFEDE75410000843
:10059C0064100008741000088410000894100008FF
:1005AC00A4100008B4100008C4100008D4100008EF
:1005BC00E4100008F010000800ED00E00011000845
:1005CC0010110008201100085011000858110008E3
:1005DC00301100084011000883691A888A4201D042
:1005EC00002070470268033A012A01D900207047A5
:1005FC000233836101207047FEE700000F4B1A683D
:10060C0042F001021A6059680D4A0A405A601A6891
:10061C0022F0847222F480321A601A6822F480224A
:10062C001A605A6822F4FE025A604FF41F029A6054
:10063C00044B4FF000629A60704700BF00100240FC
:10064C000000FFF800ED00E01F4B5B6803F00C03AB
:10065C00042B14D0082B16D01BB11C4B1C4A1A604F
:10066C0002E01A4B1A4A1A60174B5B68C3F3031368
:10067C00184AD15C154A1368CB4013607047134B72
:10068C00134A1A60F0E7104A53685268C3F3834365
:10069C00023312F4803F05D10F4A02FB03F30B4ADD
:1006AC001360E1E7084A526812F4003F05D00A4A89
:1006BC0002FB03F3054A1360D6E7054A02FB03F37A
:1006CC00024A1360D0E700BF001002400C0000206B
:1006DC0000127A009C11000800093D000A4B1B68AF
:1006EC000A4AA2FB03239B09013BB3F1807F09D289
:1006FC00074A5360074BF02183F8231000239360C3
:10070C0007231360704700BF0C000020D34D62100C
:10071C0010E000E000ED00E0034B1860024B1B689A
:10072C00002BFBD1704700BF10010020034B1B684E
:10073C001BB1024A1368013B136070471001002083
:10074C0008B5FFF7F3FF08BD10B50A48FFF776FEB2
:10075C00094B19680948FFF757FEFFF7BFFF002444
:10076C004FF47A70FFF7D8FF013421460448FFF7A5
:10077C004BFEF5E7AC1100080C000020C01100087E
:10078C00D8110008014B1868704700BF10000020FA
:10079C000A44914200F1FF3300D1704710B511F8B3
:1007AC00014B914203F8014FF9D110BD034613F8E8
:1007BC00012B002AFBD1181A0138704730B5141ED2
:1007CC0005469BB0184605DA8B234FF0FF302B60A3
:1007DC001BB030BD4FF40273ADF80C300CBF234688
:1007EC0004F1FF33029305934FF6FF730246009119
:1007FC000491ADF80E3069461E9B284600F074F843
:10080C00431CBCBF8B232B60002CE1D00022009B2F
:10081C001A70DDE707B5009313460A4601460348F4
:10082C000068FFF7CBFF03B05DF804FB100000205D
:10083C002DE9F0478E6882469E420C4690461F4634
:10084C0038D88A8912F4906F32D02568096901333F
:10085C00A5EB010965694B4405EB450505EBD57521
:10086C006D109D4238BF1D46530531D5294600F009
:10087C0045FB064650B90C234FF0FF30CAF8003048
:10088C00A38943F04003A381BDE8F0874A46216960
:10089C00FFF77EFFA38923F4906343F08003A381C9
:1008AC0026614E4426603E466561A5EB0905A560B0
:1008BC00BE4200D93E4632464146206800F0B8FAA6
:1008CC00A36822689B1B32440020A3602260DBE7F4
:1008DC002A4600F06DFB06460028E1D150462169FE
:1008EC0000F0C0FAC7E700002DE9F04F98468B895D
:1008FC0007461B060D4614469DB00ED50B6963B911
:10090C00402100F0FBFA2860286120B90C233B60E1
:10091C004FF0FF30D1E040236B610023099320237B
:10092C008DF8293030234FF00109CDF80C80DFF819
:10093C00A4818DF82A3023469A4613F8012B0AB16C
:10094C00252AF9D1BAEB040B0BD05B46224629467B
:10095C003846FFF76DFF013000F0AA80099A5A441F
:10096C0009929AF80030002B00F0A28000234FF07F
:10097C00FF32CDE905230AF1010A049307938DF8A0
:10098C0053301A935446052214F8011B514800F0B9
:10099C0041FA049AD8B9D00644BF20238DF85330BD
:1009AC00110744BF2B238DF853309AF800302A2BB3
:1009BC0015D0544600204FF00A0C079A214611F826
:1009CC00013B303B092B4ED9B0B1079214E0A0EBA0
:1009DC00080309FA03F31343A2460493D2E7039BDB
:1009EC00191D1B680391002BBBBF5B4242F0020236
:1009FC0007930793B8BF049223782E2B0CD16378FE
:100A0C002A2B35D1039B02341A1D1B680392002B31
:100A1C00B8BF4FF0FF330593DFF8C8A00322504650
:100A2C00217800F0F7F940B14023A0EB0A0003FA5B
:100A3C0000F0049B01340343049314F8011B0622B9
:100A4C0025488DF8281000F0E5F9002838D0234B04
:100A5C001BBB039B073323F0070308330393099B4A
:100A6C003344099367E70C4601200CFB0232A5E7DF
:100A7C0000234FF00A0C194601340593204610F858
:100A8C00012B303A092A03D9002BC5D00591C3E7B5
:100A9C00044601230CFB0121F0E703AB00932A462B
:100AAC0038460F4B04A9AFF30080421C0646D6D142
:100ABC00AB895B063FF52CAF09981DB0BDE8F08FF4
:100ACC0003AB00932A463846054B04A900F07CF88A
:100ADC00EBE700BFE3110008ED1100080000000077
:100AEC003D080008E91100082DE9F0471646994623
:100AFC008A680B6907469342B8BF1346336091F876
:100B0C0043200C46DDF820800AB1013333602368A2
:100B1C00990642BF336802333360256815F0060529
:100B2C0006D104F1190AE36832689B1AAB4228DC3F
:100B3C0094F84320131E226818BF012392062DD46B
:100B4C004946384604F14302C047013020D023689F
:100B5C00E56803F00603042B18BF002532684FF03C
:100B6C000006A36808BFAD1A226908BF25EAE5751F
:100B7C009342C4BF9B1AED181A34B5421AD1002007
:100B8C0008E00123524649463846C047013003D19C
:100B9C004FF0FF30BDE8F0870135C4E73020E11895
:100BAC0081F843005A1C94F845102244023382F811
:100BBC004310C5E70123224649463846C047013059
:100BCC00E6D00136D9E700002DE9FF470C46277E19
:100BDC009146782F80469A460C9904F1430207D827
:100BEC00622F0AD8002F00F0D980582F00F0A48073
:100BFC0004F1420684F842703AE0A7F16303152B26
:100C0C00F6D801A050F823F06D0C0008810C0008F8
:100C1C00FD0B0008FD0B0008FD0B0008FD0B000888
:100C2C00810C0008FD0B0008FD0B0008FD0B0008F3
:100C3C00FD0B00088F0D0008B10C0008710D0008A9
:100C4C00FD0B0008FD0B0008B10D0008FD0B0008A2
:100C5C00B10C0008FD0B0008FD0B0008790D000815
:100C6C000B6804F142061A1D1B680A6084F84230B6
:100C7C000123A4E0256808682E0600F104030AD5B8
:100C8C0005680B60002D03DA2D236D4284F8433088
:100C9C000A235E4819E015F0400F05680B6018BF79
:100CAC002DB2EFE70B682568181D0860280601D5E2
:100CBC001D6802E06906FBD51D886F2F0CBF082349
:100CCC000A235248002184F843106668002EA8BFFE
:100CDC002168A660A4BF21F0040121600DB9002E8B
:100CEC004DD01646B5FBF3F103FB1157C75D06F863
:100CFC00017D2F46BB420D46F4D9082B0BD123683E
:100D0C00DF0708D5236961689942DEBF302306F8F6
:100D1C00013C06F1FF36921B22614B4621464046B0
:100D2C00CDF800A003AAFFF7DFFE01304CD14FF045
:100D3C00FF3004B0BDE8F087344884F845700E6885
:100D4C00236856F8045B1F060E6014D5D90744BF00
:100D5C0043F0200323601DB9236823F02003236094
:100D6C001023AFE7236843F020032360782328483F
:100D7C0084F84530E3E75E0648BFADB2E6E71646B9
:100D8C00BBE70B6826681D1D60690D6035061B6886
:100D9C0001D5186002E07106FBD5188000231646B9
:100DAC002361BAE70B681A1D0A601E6800213046E1
:100DBC00626800F02FF808B1801B606063682361E3
:100DCC00002384F84330A8E732464946404623695D
:100DDC00D0470130ABD023689B0713D4E068039B4A
:100DEC009842B8BF1846A4E701233246494640460C
:100DFC00D04701309BD00135E36803995B1AAB42B5
:100E0C00F2DCEBE7002504F11906F5E7F411000814
:100E1C0005120008034610B5C9B2024493421846A5
:100E2C0001D1002003E0047801338C42F6D110BDCF
:100E3C00884210B501EB020402D98442234607D83C
:100E4C00431EA14208D011F8012B03F8012FF8E73B
:100E5C00014602448A4200D110BD13F8014D02F83C
:100E6C00014DF7E738B50546002943D051F8043C4D
:100E7C000C1F002BB8BFE41800F0D0F81E4A136802
:100E8C00104633B9636014602846BDE8384000F062
:100E9C00CBB8A3420AD921686218934201BF1A68E1
:100EAC005B685218226063600460EDE71A465B6869
:100EBC000BB1A342FAD911685018A0420BD120688B
:100ECC000144501883421160DED118685B680144FC
:100EDC0011605360D8E702D90C232B60D4E720684B
:100EEC0021188B4201BF19685B6809182160636087
:100EFC005460C9E738BD00BF04010020F8B5CD1C13
:100F0C0025F0030508350C2D38BF0C25002D0646A1
:100F1C0001DBA94203D90C2333600020F8BD00F09B
:100F2C007DF821490A6814469CB9204F3B6823B9C7
:100F3C002146304600F062F838602946304600F011
:100F4C005DF8431C23D10C233046336000F06CF861
:100F5C00E3E723685B1B17D40B2B03D923601C44DA
:100F6C00256004E06368A2420CBF0B6053603046FE
:100F7C0000F05AF804F10B00231D20F00700C21AF0
:100F8C00CCD01B1AA350C9E722466468CCE7C41C1A
:100F9C0024F00304A042E3D0211A304600F02EF8CE
:100FAC000130DDD1CFE700BF040100200801002093
:100FBC00F8B5074614460E4621B91146BDE8F8406F
:100FCC00FFF79CBF22B9FFF74DFF25462846F8BD19
:100FDC0000F030F8A0420FD221463846FFF78EFFC2
:100FEC0005460028F2D031462246FFF7D1FB3146A8
:100FFC003846FFF737FFE9E73546E7E738B5002312
:10100C00054D044608462B60FFF7D4F9431C02D16A
:10101C002B6803B1236038BD0C010020014800F09F
:10102C0011B800BF18010020014800F00CB800BF37
:10103C001801002051F8043C181F002BBCBF0B58A2
:10104C00C018704770477047537461636B206672A9
:10105C00616D653A0A000000205230203D202025A9
:10106C003038580A00000000205231203D20202545
:10107C003038580A00000000205232203D20202534
:10108C003038580A00000000205233203D20202523
:10109C003038580A0000000020523132203D202503
:1010AC003038580A00000000204C52203D202025EA
:1010BC003038580A00000000205043203D202025E5
:1010CC003038580A0000000020505352203D202593
:1010DC003038580A000000004653522F4641523A0D
:1010EC000A0000002043465352203D202025303872
:1010FC00580A00002048465352203D202025303805
:10110C00580A00002044465352203D2020253038F8
:10111C00580A00002041465352203D2020253038EB
:10112C00580A0000204D4D464152203D20253038B4
:10113C00580A00002042464152203D2020253038DC
:10114C00580A00004D6973630A000000204C522FAE
:10115C004558435F52455455524E3D202530385822
:10116C000A0000005B486172644661756C745D0A2C
:10117C00000000005B4275734661756C745D0A007B
:10118C005B55736167654661756C745D0A000000A0
:10119C00000000000000000001020304060708091B
:1011AC0048656C6C6F2041524D20576F726C6421F6
:1011BC000000000053797374656D20636C6F636B72
:1011CC003A20257520487A0A000000005365636FA9
:1011DC006E642025640A00232D302B2000686C4C93
:1011EC000065666745464700303132333435363753
:1011FC003839414243444546003031323334353678
:0A120C0037383961626364656600DB
:1012180078563412800000200000000000A24A0422
:101228001400002000000000000000000000000082
:1012380000000000000000000000000000000000A6
:101248000000000000000000000000000000000096
:101258000000000000000000000000000000000086
:101268000000000000000000000000000000000076
:101278000000000000000000000000000000000066
:081288000000000032547698CA
:04000005080001519D
:00000001FF
